:020000040800F2
:1000000000040020EF010008490200084B0200082C
:100010004F020008530200085702000800000000C9
:100020000000000000000000000000005B0200086B
:100030005D02000800000000CF27000861020008F0
:100040000F0200080F0200080F0200080F0200084C
:100050000F0200080F0200080F0200080F0200083C
:100060000F0200080F0200080F0200080F0200082C
:100070000F0200080F0200080F0200080F0200081C
:100080000F0200080F0200080F0200080F0200080C
:100090000F0200080F0200080F0200080F020008FC
:1000A0000F0200080F0200080F0200080F020008EC
:1000B0000F0200080F0200080F0200080F020008DC
:1000C0000F0200080F0200080F0200080F020008CC
:1000D0000F020008E71300080F0200080F020008D3
:1000E0000F0200080F0200080F0200080F020008AC
:1000F0000F0200080F0200080F0200080F0200089C
:100100000F0200080F0200080F0200080F0200088B
:100110000F0200080F0200080F0200080F0200087B
:100120000F0200080F0200080F0200080F0200086B
:1001300000F002F800F04AF80AA090E8000C8244AF
:100140008344AAF10107DA4501D100F03FF8AFF28C
:10015000090EBAE80F0013F0010F18BFFB1A43F0A5
:1001600001031847C8310000E8310000103A24BFED
:1001700078C878C1FAD8520724BF30C830C144BF0C
:1001800004680C607047000000230024002500264E
:10019000103A28BF78C1FBD8520728BF30C148BFEA
:1001A0000B607047642902F0D183782902F008843B
:1001B000632902F00285732902F007850020704749
:1001C0001FB502F092FF1FBD10B510BD02F038FD43
:1001D0001146FFF7F5FF00F02DF802F056FD03B4CD
:1001E000FFF7F2FF03BC00F043F8000070470B4834
:1001F00080470B4981F308880A480047FEE7FEE77D
:10020000FEE7FEE7FEE7FEE7FEE7FEE7FEE7FEE7C6
:1002100005480649044A064B70470000ED010008F6
:10022000B00E002031010008B00C0020B00E0020FC
:10023000B00C002002A002F053FB00BFFEE700005C
:10024000546573742E0A0000704700BFFEE700BFBC
:10025000FEE700BFFEE700BFFEE77047704770474C
:1002600010B501F0B2FA01F0EEFB01F0C9FA10BDD1
:10027000014600BF704700BFF94A128812F0400FD4
:10028000FAD0C2B2F74B1A8070470020F6490880B6
:10029000F6480078313805284BD2DFE800F003112A
:1002A0001F2E3C00F0480088F1490860EE480088A5
:1002B000F049C1F80008EC480088EF49086039E0CF
:1002C000E9480088ED490860E7480088E949C1F835
:1002D000000CE5480088EA4908602BE0E248008805
:1002E000E849486008460068DF4909880843E5494D
:1002F0000860DD480088C8601CE0DB480088E249EF
:100300000860D9480088DF49C1F80004D648008851
:10031000DE4908600EE0D4480088DD490860D24814
:100320000088D849C1F80008CF480088D94908603A
:1003300000E000BF00BF704710B50446CB4800780E
:10034000844274D1C84800884004000CC649088023
:1003500008460088B0F5807F6BD012DC102846D0AC
:1003600008DC012825D002282AD004282FD008280C
:1003700025D134E0202842D0402848D080281ED102
:100380004DE0B0F5805F73D009DCB0F5007F57D049
:10039000B0F5806F5BD0B0F5006F10D15FE0B0F5C5
:1003A000005F6DD0B0F5804F73D0B0F5004F06D12F
:1003B00077E00020B84908600320B849086078E079
:1003C0000020B54908603020B449086071E0002081
:1003D000B14908604FF44070B049086069E00020FE
:1003E000AD4908604FF44050AC49086061E000201E
:1003F000A94908604FF44030A849086059E000203E
:10040000A54908604FF44010A449086051E000205D
:10041000A14908604FF04070A049086049E0002001
:100420009D4908604FF040509C49086041E041E020
:10043000FFE703209849086000209849086038E0E9
:1004400030209549086000209449086031E04FF45D
:1004500040709149086000209049086029E04FF4FD
:1004600040508D49086000208C49086021E0FFE77A
:100470004FF440308849086000208849086018E03F
:100480004FF440108449086000208449086010E05F
:10049000FFE74FF040708049086000207F49086006
:1004A00007E04FF040507C49086000207B4908601D
:1004B00000BF06E0FFF7E9FE6C48047001206A49BE
:1004C00008802046352C66D008DCA0F130000528D5
:1004D00075D2DFE800F01013273B4C0038286FD0AE
:1004E00004DC36286FD0372869D17CE0392869D000
:1004F000612864D1A3E0FFF7C8FED7E068488069AF
:1005000040F0040066498861634800685849086003
:10051000624800685749C1F80008534800885649A6
:100520000860C3E05E48806940F008005C4988616B
:100530005948006851490860584800684D49C1F859
:10054000000C494800884E490860AFE05448806973
:1005500040F01000524988614F480068494948609E
:100560004E480068086040480088C8609EE04C48DB
:10057000806940F020004A49886147480068424944
:100580000860464800683F49C1F8000436480088C2
:100590003E4908608AE04248806940F04000404996
:1005A00088613D4800683A4908603C480068354920
:1005B000C1F800082C4800883649086076E071E0F0
:1005C00021E000E02BE03448006829490860334806
:1005D00000682849C1F80008234800886FEA000035
:1005E0002549086062E02C480068244908602B48CF
:1005F00000682049C1F8000C1B4800886FEA000021
:100600001F49086052E0244800681E49486023489A
:100610000068086014480088C043C86046E01E486F
:100620000068194908601D4800681649C1F80004AF
:100630000D4800886FEA00001449086036E016484B
:10064000006813490860154800680E49C1F80008A1
:10065000054800886FEA00000E49086026E00000A7
:100660000038014004380140020000200C00002046
:1006700004080140000001400C080140040C014046
:100680000C0C014000100140041401400C14014006
:10069000041801400C18014008000020040000204C
:1006A0000010024030205549087000BF00BF544878
:1006B000038852480278214652A002F011F95048AE
:1006C0000088B0F1004F02D101204D49088010BDD3
:1006D00010B550A002F004F956A002F001F95DA097
:1006E00002F0FEF863A002F0FBF86AA002F0F8F84E
:1006F00070A002F0F5F877A002F0F2F87DA002F009
:10070000EFF884A002F0ECF88AA002F0E9F891A0DA
:1007100002F0E6F897A002F0E3F89EA002F0E0F8FD
:10072000A4A002F0DDF8ABA002F0DAF8B1A002F06C
:10073000D7F8B8A002F0D4F8BEA002F0D1F8C5A056
:1007400002F0CEF8CBA002F0CBF8D2A002F0C8F8AD
:10075000D8A002F0C5F8DFA002F0C2F8E5A002F0D0
:10076000BFF8ECA002F0BCF8F2A002F0B9F8F9A0D2
:1007700002F0B6F8FFA002F0B3F810BD1FB5FF48B5
:10078000806940F00400FD4988610846806940F0B6
:10079000080088610846806940F0100088610846BA
:1007A000806940F0200088610846806940F0400080
:1007B0008861F3480068F34900EA0100F249C1F892
:1007C0000008EF480068F14940EA0100EE49C1F82D
:1007D0000008EF480068EF4900EA0100EA49C1F863
:1007E000000CEB480068EC4940EA0100E649C1F81A
:1007F000000C0846D0F8040CD0E100000C000020EA
:1008000002000020256320202563202030782578F1
:100810000D0A00000D0A494F2054657374204D6184
:10082000696E204D656E7521212121212121212113
:10083000213A00000D0A2D2D2D2D544F47474C45D0
:1008400020504F5745522D2D2D2D2D2D2D2D2D2046
:10085000300000000D0A2D2D2D2D52454420202062
:100860004C4544204F4E2D2D2D2D2D2D2D2D2D2041
:10087000310000000D0A2D2D2D2D475245454E20EB
:100880004C4544204F4E2D2D2D2D2D2D2D2D2D2021
:10089000320000000D0A2D2D2D2D414C4C20202022
:1008A0004C4544204F4E2D2D2D2D2D2D2D2D2D2001
:1008B000330000000D0A2D2D2D2D414C4C20202001
:1008C0004C4544204F46462D2D2D2D2D2D2D2D20D0
:1008D000340000000D0A2D2D2D2D5249474854207B
:1008E0004252555348204F4E2D2D2D2D2D2D2D206C
:1008F000350000000D0A2D2D2D2D5249474854205A
:100900004252555348204F46462D2D2D2D2D2D203A
:10091000360000000D0A2D2D2D2D4C45465420206B
:100920004252555348204F4E2D2D2D2D2D2D2D202B
:10093000370000000D0A2D2D2D2D4C45465420204A
:100940004252555348204F46462D2D2D2D2D2D20FA
:10095000380000000D0A2D2D2D2D524947485420F6
:10096000574845454C20464F52574152442D2D2063
:10097000390000000D0A2D2D2D2D524947485420D5
:10098000574845454C204241434B574152442D2046
:10099000410000000D0A2D2D2D2D524947485420AD
:1009A000574845454C204F46462D2D2D2D2D2D20A9
:1009B000420000000D0A2D2D2D2D4C454654205788
:1009C0004845454C20464F52574152442D2D2D202D
:1009D000430000000D0A2D2D2D2D4C454654205767
:1009E0004845454C204241434B574152442D2D2010
:1009F000440000000D0A2D2D2D2D4C454654205746
:100A00004845454C204F46462D2D2D2D2D2D2D2072
:100A1000450000000D0A2D2D2D2D46524F4E54201D
:100A20005052455353202D2D2D2D2D2D2D2D2D2064
:100A3000460000000D0A2D2D2D2D46524F4E5420FC
:100A40002053454E534F522D2D2D2D2D2D2D2D2024
:100A5000470000000D0A2D2D2D2D424F54544F4DAF
:100A60002053454E534F522D2D2D2D2D2D2D2D2004
:100A7000480000000D0A2D2D2D2D544F50205345B8
:100A80004E534F522D2D2D2D2D2D2D2D2D2D2D2015
:100A9000490000000D0A2D2D2D2D4B45592D2D2DD2
:100AA0002D2D2D2D2D2D2D2D2D2D2D2D2D2D2D2083
:100AB0004A0000000D0A2D2D2D2D42555A204F4E73
:100AC0002D2D2D2D2D2D2D2D2D2D2D2D2D2D2D2063
:100AD0004B0000000D0A2D2D2D2D42555A204F465A
:100AE000462D2D2D2D2D2D2D2D2D2D2D2D2D2D202A
:100AF0004C0000000D0A2D2D2D2D46414E204F4E4D
:100B00002D2D2D2D2D2D2D2D2D2D2D2D2D2D2D2022
:100B10004D0000000D0A2D2D2D2D46414E204F4633
:100B2000462D2D2D2D2D2D2D2D2D2D2D2D2D2D20E9
:100B30004E0000000D0A2D2D2D2D434841524745F2
:100B4000205354415455532D2D2D2D2D2D2D2D2019
:100B50004F0000000D0A2D2D2D2D524553495354A1
:100B6000205354415455532D2D2D2D2D2D2D2D20F9
:100B7000500000000D0A0D0A0000000000100240A5
:100B800000080140F000000F000001400888888044
:100B9000000C0140F0FF0FFF0800800020F47000FF
:100BA000C1F8040C0846D0F8040C40F40000C1F869
:100BB000040CFF48006820F47020FD4908600846D6
:100BC000006840F4002008600846C06840F010004B
:100BD000C8600846D0F800046FF30B00C1F80004A9
:100BE000F448006840F6880140EA0100F049C1F885
:100BF0000004F1480068F14900EA0100EC49C1F83D
:100C00000404ED480068EE4940EA0100E849C1F8F3
:100C100004040846D0F8000820F00F00C1F80008CE
:100C20000846D0F8000840F00800C1F8000808465F
:100C3000D0F80C0840F00100E2490860E2A001F0A1
:100C40004FFEE6480368E6480268E648D0F810110F
:100C50008DE80E00D0F80C31D0F8082100F5807036
:100C60000168E1A001F03CFEEC48D0F83431D0F846
:100C7000142100F582700168E9A001F031FEF0480E
:100C80000168F0A001F02CFEF2480368A0F1040016
:100C90000268A0F104000168EF4800688DE80F00C9
:100CA000EE48D0F80C31D0F8082100F582700168C8
:100CB000EBA001F015FEF948D0F80011F8A001F002
:100CC0000FFE1FBDFA48806940F01000F8498861A6
:100CD000B748006820F0F000B54908600846006891
:100CE00040F0800008600846C06840F00200C8601C
:100CF000F0480068C0B27047ED49896941F01001C1
:100D0000EB4A9161AA49496821F0F001A84A516073
:100D10001146496841F03001516028B91146C9684F
:100D200041F40071D16007E0012805D1A049C968EC
:100D300021F400719E4AD1607047DD49896941F014
:100D40000401DB4A9161DC49096821F47041DB4A06
:100D5000C2F804181146D1F8041841F44051C2F801
:100D6000041830B9D649096841F40061C2F80C187A
:100D700008E0012806D1D249096821F40061CF4A70
:100D8000C2F80C18704710B5C948806940F040009F
:100D9000C7498861CB48006820F0F0008449C1F859
:100DA00000080846D0F8000840F08000C1F80008AC
:100DB0000846D0F80C0840F00200C1F80C08C24800
:100DC0000168C2A001F08CFD10BD10B5B848806963
:100DD00040F04000B6498861BA48006820F00F0032
:100DE0007349C1F800080846D0F8000840F0080030
:100DF000C1F800080846D0F80C0840F00100C1F81E
:100E00000C08B6480168B6A001F06AFD10BD10B527
:100E10000446A748806940F00800A5498861084653
:100E2000806940F010008861B348006820F070606D
:100E3000A249C1F8000C0846D0F8000C40F0407000
:100E4000C1F8000C5A48406820F00F00584948602B
:100E50000846406840F003004860012C10D1A748C4
:100E6000006840F040009549C1F80C0C5048C0683B
:100E700020F480704E49C860A1A001F031FD24E04B
:100E8000022C10D19D48006820F040008B49C1F829
:100E90000C0C4748C06820F480704549C8609DA08C
:100EA00001F01EFD11E0012C0FD19448006820F0E4
:100EB00040008249C1F80C0C3D48C06820F48070A5
:100EC0003B49C86098A001F00BFD10BD78498969C5
:100ED00041F00801764A91611146896941F010019B
:100EE00091618549096821F07061744AC2F8001C5B
:100EF0001146D1F8001C41F04071C2F8001C2C4989
:100F0000096821F070612A4A11601146096841F0B0
:100F10004071116001280DD17849096821F0400124
:100F2000664AC2F80C1C2249C96821F04001204AD7
:100F3000D1601EE002280DD17049096841F04001DE
:100F40005E4AC2F80C1C1A49C96821F04001184ACF
:100F5000D1600EE001280CD16849096821F04001F8
:100F6000564AC2F80C1C1249C96821F04001104AC7
:100F7000D16070474E49896941F004014C4A916142
:100F80004D49096821F00F014C4AC2F80418114676
:100F9000D1F8041841F00301C2F804180449496863
:100FA00021F00F01024A516011464968C4E0000077
:100FB000001001400014014004140140FFF000F053
:100FC000000888080C1801405245534953542053D7
:100FD00054415455533A200D0A0000001C0121428F
:100FE00014012142000021425054413A203028256A
:100FF0006C6429203228256C6429203328256C64F0
:1010000029203428256C6429203528256C64292062
:101010003728256C64290D0A000000000080214259
:101020005054423A203128256C6429203528256CFB
:10103000642920313328256C64290D0A0000000042
:10104000100122425054433A203428256C64290D63
:101050000A00000038812242288122420080224278
:101060005054443A203128256C6429203228256CBC
:101070006429203328256C642920313028256C64AC
:101080002920313228256C642920313328256C64CD
:101090002920313428256C64290D0A0000002342E0
:1010A0005054453A203028256C64290D0A00000070
:1010B00000100240040122420408014000000140E7
:1010C0000C08014000180140040123426B6579209F
:1010D0007374617475733A20256C640000012342B7
:1010E000544F502053454E534F52207374617475C2
:1010F000733A20256C640000000C01400C0C014088
:101100004C45465420574845454C20464F52574180
:10111000524400004C45465420574845454C204217
:1011200041434B57415244004C4546542057484593
:10113000454C204F4646000041F00301516068B91C
:10114000E749096841F48071E64AC2F80C18E6499B
:10115000C96841F48071E44AD1600EE001280CD1E5
:10116000DF49096821F48071DE4AC2F80C18DE49B3
:10117000C96821F48071DC4AD1607047DB49896914
:1011800041F00801D94A9161D949096821F070619B
:10119000D44AC2F8041C1146D1F8041C41F0407135
:1011A000C2F8041C30B9D349096841F48041C2F83F
:1011B0000C1C08E0012806D1CE49096821F48041C1
:1011C000C84AC2F80C1C7047C849896941F010012F
:1011D000C64A9161C449496821F47041C24A5160CC
:1011E0001146496841F44051516028B91146C96817
:1011F00041F40061D16007E0012805D1BA49C9680E
:1012000021F40061B84AD1607047B849896941F05A
:101210001001B64A9161B449496821F47061B24A3B
:1012200051601146496841F44071516028B9114636
:10123000C96841F48061D16007E0012805D1AA495D
:10124000C96821F48061A84AD160704710B504468E
:10125000A648806940F00400A4498861A648006857
:1012600020F070609F49C1F800080846D0F80008D7
:1012700040F04070C1F80008012C0AD1984800687D
:1012800040F04000C1F80C084FF000009B49087086
:1012900017E05CB99248006820F040009149C1F81D
:1012A0000C084FF00100954908700AE08C4800686E
:1012B00020F040008B49C1F80C084FF001008F4925
:1012C00008708E48007808B98DA000E08DA0014616
:1012D0008DA001F005FB10BD70B50446A4F13000EF
:1012E00021287AD2DFE800F011161A1E252C30349E
:1012F000383C797979797979794044484C5054551A
:1013000056575A5D6165696D76007C480078FFF735
:101310009DFF66E00020FFF778FF62E00020FFF706
:1013200053FF5EE00020FFF770FF0020FFF74CFF47
:1013300057E00120FFF769FF0120FFF745FF50E06C
:101340000020FFF71BFF4CE00120FFF717FF48E0EC
:101350000020FFF70FFE44E00120FFF70BFE40E006
:101360000120FFF7B3FD3CE00220FFF7AFFD38E0BE
:101370000120FFF7ABFD34E00120FFF748FD30E02E
:101380000220FFF744FD2CE00120FFF740FD28E09C
:1013900027E026E025E0FFF718FD22E0FFF7F3FC49
:1013A0001FE00020FFF7C9FC1BE00120FFF7C5FC90
:1013B00017E00020FFF7A0FC13E00120FFF79CFCE2
:1013C0000FE0FFF77FFC0546014657A001F088FAC1
:1013D00007E002E0FFF7D2F903E030205749087038
:1013E00000BF00BF70BD10B500F0EFF95448008891
:1013F00010F0200F07D053480088C4B22046FFF7F2
:101400006BFFFFF765F900F0FBF910BD2DE9F05F08
:1014100005460E46300101F08DFD81464A4905FB27
:1014200001F001F087FD8246494601F0A1FC074624
:10143000384601F05FFD84B2204601F07BFD834613
:10144000394601F05EFE82464FF0834101F086FD91
:10145000814601F04FFD8046240104EB080084B270
:101460002248806940F0040020498861084680696C
:1014700040F4804088613548006820F47F60194955
:10148000C1F804080846D0F8040840F40B60C1F81D
:1014900004081648C06840F480401449C8600846F3
:1014A000C06820F48040C8602948A0F8084829484E
:1014B000008842F20C0140EA01002549A1F80C081D
:1014C0000846B0F80C0840F48070A1F80C080846F3
:1014D000B0F80C0840F020001E490880BDE8F09FDD
:1014E0000C080140000001400010014000100240C3
:1014F000040C01400C0C0140000801400D000020CC
:101500004F4E00004F4646000D0A50455249564185
:101510004552414C20504F5745522D2D2D2D2D2DEC
:101520002D2D2D202573000043484152474520733F
:1015300074617475733A2025640000000C0000206B
:10154000003801400438014040420F0004080140C7
:10155000003001400C3801407CB5002514E069469C
:10156000284600F026FF064666B9F84850F82540A0
:1015700044B1012C06D0D4E9020100EB8100A06344
:101580000198E063681CC5B23F2DE8D97CBD0024FA
:1015900000BF02E0C82001F019F8ED4800780028EB
:1015A000F8D0EC4800686421B0FBF1F0E94908602C
:1015B0000846006828B90020E7490870FF2000F0BD
:1015C0003AFF00BF01F0E2F80446E4480068E4494D
:1015D00008600020E1490860204601F0DBF8E0489F
:1015E0000068DC490968B0FBF1F0C0F16400DA4939
:1015F000087001F023F9FFF7AFFF642000F0E6FF69
:10160000E0E700B587B0032300228021D548CDE96B
:101610000323CDE901014FF6FE7300933E2300F54D
:10162000FE720021AFF2990000F0DCFC06AACEA108
:101630003E2000F03DFE07B000BD002400BF00BF0B
:1016400001F0A4F80446C5480068401CC34908607E
:10165000204601F09FF801F0F0F8F1E700B587B0FF
:10166000032300228021C448CDE90323CDE90101F1
:101670004FF6FF7300933F2300F5FE720021AFF297
:10168000450000F0AFFC06AABCA13F2000F010FE10
:1016900007B000BD04E0002200F8012B4A1E91B201
:1016A0000029F8D1704770B5C821B848FFF7F2FF9C
:1016B00000230FE0581C85B203EB8300B34901EB14
:1016C000800405EB850001EB800600202070666039
:1016D000581C83B2092BEDD303EB8300AB4901EB1C
:1016E00080040020207060600846A949086070BD31
:1016F00070B54FF4C661A748FFF7CCFF4FF4807177
:101700009248FFF7C7FF00230FE0581CC5B203EB58
:10171000C300A04901EBC00405EBC50001EBC00606
:1017200066619DA02064581CC3B2152BEDD303EB5A
:10173000C300984901EBC0040020606196A02064BA
:1017400000209649086093489549086070BD0021C3
:10175000944A1170002004E00021934A1154411C66
:10176000C8B20828F8D30021904A1170904A11702D
:10177000904A1160904A1160704700208F490860BC
:101780008F4908708F4908708F4908708F49087019
:101790008F49086071490860714908606D490860A7
:1017A0006B490870704710B501F042F8FFF7E5FF8C
:1017B000FFF7CDFFFFF79CFFFFF775FFFFF74EFF29
:1017C000FFF71FFF01F036F810BD804800780128B0
:1017D00008D17B480078FF2804D279480078401C63
:1017E0007749087070477B496E4A1278885C6E4969
:1017F000095C784A515C01EBC0016D4A1170704779
:1018000010B5002471480078012830D100F0BEFFE7
:1018100004466B48007820B169480078401E68494A
:10182000087067480078F8B966480078E0B9FFF7B3
:10183000DAFF46485E49097850F821005D490860A2
:101840005B4800785949097888420DD059480068AA
:10185000C06A401C57490968C8625D480068401C5E
:101860005B49086000F0AEFF204600F093FF10BD1A
:1018700010B5002455480078012811D100F086FFEA
:1018800004464F48007840B94E480078FF2804D2FB
:101890004C480078401C4B490870204600F07AFF05
:1018A00010BD10B5002400F071FF044644480078D4
:1018B000F8B944480078E0B9FFF795FF23483C4960
:1018C000097850F821003B490860394800783749C9
:1018D000097888420DD037480068C06A401C3549F5
:1018E0000968C8623A480068401C3949086000F03D
:1018F00064FF204600F04EFF10BD10B500243348B1
:101900000078012821D100F041FF04462D480078DD
:10191000C0B12C480078401E2A490870084600785B
:1019200060B92748007828B9204600F033FFFFF758
:10193000B8FF0AE0204600F02DFF06E0204600F048
:1019400029FF02E0204600F025FF10BD1C05002005
:1019500028000020200000201C000020380000206B
:10196000240000201C01002075432F4F532D4949AE
:1019700020537461740000001C03002075432F4F36
:10198000532D49492049646C650000005400002033
:10199000180000201C0600203F0000004800002026
:1019A000400000202D0000202E0000202B000020F1
:1019B0002C000020440000203C00002050000020AB
:1019C000290000202A0000203700002036000020D7
:1019D000140000200232000810B5F548007890B9D4
:1019E000FFF701FFF3480078F3490870F348F14925
:1019F000097850F82100F249086008460068F1496A
:101A0000086000F0CAFE10BD10B50024022000F0EE
:101A1000DDFD00F0BBFE04460020EB4908602046D7
:101A200000F0B8FE642000F0D1FD00F0AFFE0446E7
:101A3000E5480068E54908600120E549087020464E
:101A400000F0A8FE10BD70B5002600F047FF00F0C2
:101A50009DFE0646DF480068401CDE4908603046AF
:101A600000F098FED2480078012857D1DA48007873
:101A700020B1012804D0022809D103E001250BE0A0
:101A8000002509E001250120D349087004E0012563
:101A90000020D149087000BF00BF05B970BDCF4814
:101AA000046837E000F072FE0646206A70B3206AD0
:101AB000401E2062206A48BB94F8240010F0370FC3
:101AC00009D014F8240F00F0C800207001206070C5
:101AD000A4F1240402E0002084F8250094F82400F6
:101AE00010F0080F12D104F12804A078BC4909783D
:101AF00040EA0100BA4908702078BA49085C617868
:101B000040EA010014F82819B64A50546469304676
:101B100000F040FE94F826003F28C3D100BFBDE787
:101B200040F223107047704710B590F8282001F15B
:101B30000B039B5C90F82940E443E4B2234001F19D
:101B40000B04A35423469B5C33B98B7A90F82A404C
:101B5000E443E4B223408B7210BD2DE9F04F0546FB
:101B60000F4690469946A87A9F490E5C05F10B00F6
:101B7000805D11F800B00BEBC60000F0FF0A8F4843
:101B800050F82A40002044F8200F00BF20796FEA67
:101B90000801C9B20840207184F805902079A4F1A9
:101BA000200410F0080F0DD194F82A008C49097810
:101BB00008438B4908708B48805D94F829100843CE
:101BC0008849885529462046FFF7AEFF5046BDE8B4
:101BD000F08F10B57B4A1268D0617A4A126892F889
:101BE000283000F10B02D25C764B1B6893F8293049
:101BF0001A43744B1B6893F8284000F10B031A55E5
:101C0000827A704B1B6893F82A301A4382726D4AAD
:101C1000126892F82810734A525C6A4B1B6893F85A
:101C20002930DB43DBB21A406E4B5A541A46525CE1
:101C300052B9644A126892F82A20D243D2B2684B51
:101C40001B781A40664B1A7010BD014600228A723A
:101C5000002005E0002301F10B021354421CD0B216
:101C60000828F7D3704705E011F8013B00F8013B65
:101C7000531E9AB2002AF7D170470146002002E0B5
:101C8000491C421CD0B20A78002AF9D170472DE9CC
:101C9000FF4F81B005460F4690469946DDE90EABF1
:101CA0000020009000F072FD009050480468B4B32A
:101CB00004F10C044D49A0680860009800F06AFD2A
:101CC00044F80C7CA576002020766076606144F8AC
:101CD00008BCC4F800A044F8048C1098A080A4F8B4
:101CE00006900020E077E810207705F00700E07606
:101CF000217F01208840A077E17E01208840607725
:101D0000002020612062A0626062E0622063AFF286
:101D100078306063A4F10C044FF0000607E041E066
:101D2000002104F1440040F82610701CC6B2002EB9
:101D3000F6D0204600F0D1FD204600F07CFD00F0FA
:101D400025FD00901D4840F825402448006860614A
:101D50000020A0612148006810B12048006884611B
:101D60001E48046004F12804A0781D49097840EA5F
:101D700001001B49087020781A49085C617840EA24
:101D8000010014F82819174A50541948007800F136
:101D9000010017490870009800F0FCFC002005B015
:101DA000BDE8F08F009800F0F5FC4220F7E7000056
:101DB000360000202C0000202B0000201C050020F5
:101DC000440000203C0000203800002020000020BB
:101DD00028000020500000204C0000204800002077
:101DE0002D0000202E0000200232000840000020BC
:101DF000370000202DE9FF5F8146884600200090D3
:101E000000F0C4FC0090FB4850F8280030B1009866
:101E100000F0C0FC282004B0BDE8F09FB9F1FF0F2E
:101E200003D1F548006890F82690F24850F8294010
:101E300024B9009800F0AEFC2920ECE7012C04D175
:101E4000009800F0A7FC4320E5E74FEAE80608F019
:101E5000070003900120B04000F0FF0A0121039821
:101E60008140C8B202900020E24941F829000846AA
:101E700040F8284094F8287094F82A00019094F8CB
:101E800029B0DE48C05D10EA0B0F1ED0DB48C05DF4
:101E90006FEA0B01C9B20840D849C8550846C05D71
:101EA00038B9D74800780199C943C9B20840D44924
:101EB0000870D348007840EA0A00D1490870CF483A
:101EC000805D02990843CD498855E569F5B105F172
:101ED0000B00C05D6FEA0B01C9B2084005F10B01B0
:101EE000C8550846C05D28B9A87A0199C943C9B246
:101EF0000840A872A87A40EA0A00A87205F10B000F
:101F0000805D0299084305F10B01885504F8268F7E
:101F1000A6700398607084F804A00298E070A4F1A1
:101F20002604009800F036FCB6480078012801D15C
:101F3000FFF7B7FC00206EE72DE9FE4F06460F467F
:101F400090461C464FF0000900F020FC8146AE4848
:101F5000007828B1484600F01DFC3C20BDE8FE8F0B
:101F6000A44850F8240058BB0120A24941F824009D
:101F7000484600F00FFC002342463946304600F048
:101F80005EFC82460023009301931A465146204688
:101F90000293FFF77CFE054635B99A480078012880
:101FA0000CD1FFF77EFC09E000F0F0FB8146002039
:101FB000904941F82400484600F0ECFB2846CDE764
:101FC000484600F0E7FB2820C8E712F0010F08D0D0
:101FD00012F0020F05D002E0491E002308C00029BC
:101FE000FAD170472DE9FF4F85B080468946924669
:101FF0001C46DDE912B6169F0020039000F0C6FBD8
:1020000003908148007830B1039800F0C3FB3C2076
:1020100009B0BDE8F08F774850F8240088BB012054
:10202000744941F82400039800F0B4FB3A46304666
:102030001499FFF7CAFF3B4652464946404600F016
:10204000FEFB0490DDE914125B468DE88600324603
:1020500020460499FFF71BFE054635B9694800780C
:1020600001280CD1FFF71DFC09E000F08FFB039065
:102070000020604941F82400039800F08BFB2846BB
:10208000C6E7FFE7039800F085FB2820C0E770B59E
:10209000054600265C48007808B1402070BD3F2D01
:1020A00001D13E20FAE700F071FB0646FF2D03D177
:1020B0005148006890F826504E4850F8254024B901
:1020C000304600F067FB4320E8E7012C04D130469E
:1020D00000F060FB3D20E1E714F8280F4749085C59
:1020E0006178C943C9B208402178444A505414F871
:1020F00028091146085C40B994F82A00C043C0B2D0
:102100003F49097808403E490870E06918B1204607
:10211000E169FFF709FD0020206284F8240084F8BB
:1021200025003A480078FF2804D238480078401C3F
:1021300036490870304600F02DFBFFF7F4FC00F044
:1021400025FB06463148007820B130480078401E13
:102150002E490870204600F06FFB2D480078401E85
:102160002B4908700020234941F82500A06930B9A7
:1021700000206169886127496069086005E0D4E949
:1021800005014861D4E90510886123480068606151
:102190002148046021A02064304600F0FBFA194871
:1021A0000078012801D1FFF77CFB002076E72DE9BC
:1021B000F041044600273F2C02D13E20BDE8F081CB
:1021C000FF2C0BD100F0E2FA07460B48006890F8AC
:1021D0002B60384600F0DEFA3046EFE700F0D6FA22
:1021E0000746044850F82450D5B9384600F0D2FAD2
:1021F0004320E3E71C0500203C0000202E000020C7
:102200002D00002036000020290000202A00002098
:102210003700002048000020400000203F00000060
:10222000012D04D1384600F0B5FA3D20C6E73F2025
:1022300085F82B00384600F0ADFA0020BEE72DE906
:10224000F04706460F4614464FF00008D94800787C
:1022500020B1112020700020BDE8F08700F096FA30
:102260008046FF2E03D1D448006890F82660D348FA
:1022700050F8265035B9404600F08CFA43202070C3
:102280000020E9E7012D06D1404600F083FA432003
:1022900020700020E0E7286C38603868FFF7EDFC1C
:1022A0008146404600F076FA002020704846D3E789
:1022B0002DE9F04106460F4614464FF00008BD4890
:1022C000007818B112202070BDE8F08100F05EFAAD
:1022D0008046FF2E03D1B848006890F82660B748C2
:1022E00050F826502DB9404600F054FA4320207093
:1022F000EAE7012D05D1404600F04CFA432020705A
:10230000E2E72F64404600F045FA0020207000BF4D
:10231000DAE770B50546002600F038FA0646A74809
:1023200050F8254024B9304600F034FA462070BDFC
:10233000012C04D1304600F02DFA4320F7E794F841
:10234000240010F0080F2FD014F8240F00F0F7002D
:10235000207014F8240910BB206AE0B904F12804A5
:10236000A0789749097840EA0100954908702078DB
:102370009449085C617840EA010014F82819914AF0
:102380005054304600F006FA8F480078012809D1F1
:10239000FFF787FA06E0304600F0FCF902E030462D
:1023A00000F0F8F90020C2E7304600F0F3F94420CD
:1023B000BDE72DE9F04707460D464FF0000A002023
:1023C0002860686000F0E2F98246FF2F03D17A4866
:1023D000006890F82670794850F827402CB950468C
:1023E00000F0D8F94320BDE8F087012C04D1504615
:1023F00000F0D0F94320F6E7208A10F0010F04D155
:10240000504600F0C7F94520EDE70026D4F80C90BF
:10241000D4F80880504600F0BDF900E0761C58F86A
:10242000041B0029FAD0B0002860A9EB0600800048
:1024300068600020D7E72DE9F04105464FF000081D
:1024400000F0A4F98046FF2D05D15B48006890F8A4
:102450002650012608E05848006890F82600A84257
:1024600001D1012600E00026544850F825402CB93F
:10247000404600F08FF94820BDE8F081012C04D1DE
:10248000404600F087F94320F6E794F828704D485D
:10249000C05D94F82910C943C9B208404949C855DC
:1024A0000846C05D40B994F82A00C043C0B2444910
:1024B000097808404249087094F8240040F0080068
:1024C00084F82400404600F065F9012E01D1FFF7A1
:1024D000E8F90020D0E72DE9F04105460E46002737
:1024E00000F054F90746FF2D03D13348006890F8F7
:1024F0002650324850F825402CB9384600F04AF9A9
:102500002920BDE8F081012C04D1384600F042F9C1
:102510004320F6E7482221463046FFF7A4FB384621
:1025200000F038F90020ECE72DE9F04704460E46AC
:1025300017464FF0000900F029F98146FF2C02D11F
:102540001D48056802E01D4850F8245005F144007C
:1025500050F82680484600F01DF9002038704046AB
:10256000BDE8F0872DE9F04704460E461746984629
:102570004FF0000900F00AF98146FF2C02D10E4805
:10258000056802E00D4850F8245005F1440040F879
:102590002670484600F0FEF8002088F80000BDE8EC
:1025A000F08710B50448006800F043F9FF20FFF7FA
:1025B0006EFD10BD290000203C0000201C050020FD
:1025C0002D0000202E0000203600002070B50546AA
:1025D00000266748007800B170BD6648007800B1F9
:1025E000FAE73DB300F0D2F806466348006890F879
:1025F00028406248005D6049096891F82910C94384
:10260000C9B208405D4908550846005D50B95A48AE
:10261000006890F82A00C043C0B2594909780840C0
:1026200057490870544800680562304600F0B2F817
:10263000FFF737F900BFCFE72DE9F04105460E4619
:1026400017461C464A48007810B15520BDE8F08175
:102650004848007808B13220F8E74FF47A706043B8
:102660004FF47A71B0FBF1F14FF461606843C6EB4F
:10267000061200EB8200384400EB4002C2EBC010AF
:1026800001EBC0084046FFF7A1FF0020DEE770B570
:10269000054600263F2D01D32A2070BD00F076F8B4
:1026A0000646384850F8254024B9304600F072F804
:1026B0004320F2E7012C04D1304600F06BF84320B0
:1026C000EBE7206A20B9304600F064F85020E4E7D8
:1026D0000020206294F8240010F0370F09D014F87D
:1026E000240F20F03700207001206070A4F1240432
:1026F00002E0002084F8250094F8240010F0080F70
:1027000018D104F12804A0781D49097840EA010095
:102710001B49087020781949085C617840EA01007B
:1027200014F82819154A5054304600F033F8FFF7D2
:10273000B8F802E0304600F02DF80020ADE770B5A3
:10274000002500F023F805460F480468284600F0ED
:1027500021F8204670BD70B50446002500F016F83B
:10276000054609480460284600F014F870BD0000D2
:10277000290000202A0000203C0000202E0000201C
:102780002D0000201C05002050000020EFF31080D9
:1027900072B6704780F3108870471D484FF0FF01F4
:1027A0000170002080F309881A48012101701A483D
:1027B0004FF08051016062B6FEE717484FF080513C
:1027C0000160704714484FF080510160704772B645
:1027D000EFF3098028B1203880E8F00F0F4909682D
:1027E000086000B50E4880475DF804EB0D480E49BF
:1027F0000A78027009480D490A680260106890E87A
:10280000F00F203080F309884EF0040E62B6704756
:1028100022ED00E03600002004ED00E03C00002046
:10282000D92800082B0000202C00002044000020A4
:10283000704770477047704770477047704770B572
:10284000044610464FF080750560051F28462C6031
:102850006FF00106051F28462E604FF01236051F47
:1028600028462E604FF00336051F28462E604FF095
:102870000236051F28462E607610051F28462E605A
:10288000051F284629604FF01136051F28462E6087
:102890004FF01036051F28462E604FF00936051FF1
:1028A00028462E604FF00836051F28462E604FF050
:1028B0000736051F28462E604FF00636051F2846AE
:1028C0002E604FF00536051F28462E604FF0043667
:1028D000051F28462E6070BD7047704770477047CF
:1028E0000FB4044910B503AA029800F073F910BCA4
:1028F0005DF814FB1000002070B505460C46012A57
:1029000005D02868800600D5EA69002302E001238B
:1029100005E05B1C934202D2E05C0028F9D1A86973
:10292000E618C01AA861286A184428622846AFF33E
:10293000008004E0D5E9012114F8010B9047B4426E
:10294000F8D32846AFF3008070BD00002DE9F041B8
:102950008046002610687529414615A512D0AFF3B0
:102960000080002803DAC0F1000012A508E0D8F8C2
:1029700000108A0701D510A502E0490704D50FA56C
:10298000012601E0AFF30080002408F1240704E0F1
:1029900000F032F930313955641C0028F8D1334643
:1029A0002A4621464046BDE8F04100F0A2B80000AA
:1029B000000000002D0000002B000000200000009F
:1029C00070B504460D4621461068AFF300802168BB
:1029D000090502D5104A7A4402E00F4A7A440E32C1
:1029E000002104F1240307E000F00F064FEA101065
:1029F000965D5E5401F101010028F5D120680023A5
:102A0000000704D5702D02D009B1113202232046EF
:102A1000BDE8704000F06DB8280900002DE9F047CE
:102A20004FF0000A05460F464FF08009C0F820A07D
:102A30002846E9688847F0B3252806D0D5E9012162
:102A40009047286A401C2862F2E7E9682846002679
:102A500088476C2804460AD0682C08D04C2C35D006
:102A60006A2C33D0742C31D07A2C2FD016E0E96840
:102A7000804628468847404504460AD14E46B8F16C
:102A80006C0F01D04FF480662846E96888470446F9
:102A900004E04026B8F16C0F00D0B6005CB1A4F1A0
:102AA0004100192802D8203446F400663A462146EF
:102AB00028462E6000E015E0FDF774FB80B1012888
:102AC0000CD0FF1D27F007070837B1E74C2C5646FE
:102AD000DAD04E466A28D7D00026D5E73F1DA7E7B3
:102AE0002046ABE7286ABDE8F0877047704770471B
:102AF00070472DE9F0470D4604469246994600F18D
:102B000024080168880604D5E06921F010012160DD
:102B100000E001200027A84201DDA0EB0507A16924
:102B200007EB050202EB0300A1EB0000A0612068A7
:102B3000C00602D42046AFF30080002608E0D4E9A6
:102B400001211AF806009047206A401C761C20627A
:102B50004E45F4DB2068C0060AD52046AFF300805E
:102B600006E0D4E9012130209047206A401C206211
:102B7000381EA7F10107F4DC07E0D4E9012118F8B9
:102B800005009047206A401C2062281EA5F101051F
:102B9000F3DC2046AFF3008021680220090600D450
:102BA0000120BDE8F08710B5436913B1AFF3008091
:102BB00001E0FFF7A1FE012010BD126800F1240121
:102BC0000A7000224A700122EDE711684FF0FF32CF
:102BD000E9E70000074B70B50C467B4400F019F89C
:102BE0000546204600F028F810B14FF0FF3070BDC8
:102BF000284670BD99D6FFFF4FF00A01B0FBF1F2F5
:102C000002FB11011046704701694A1C02610878F5
:102C1000704700B58FB0CDE901310021059105491C
:102C20007944CDE9031011466846FFF7F7FE0FB06F
:102C300000BD0000E5FFFFFFC06800F080007047A6
:102C4000754600F029F8AE4605006946534620F067
:102C50000700854618B020B5FDF7DAFABDE8204038
:102C60004FF000064FF000074FF000084FF0000B48
:102C700021F00701AC46ACE8C009ACE8C009ACE8FB
:102C8000C009ACE8C0098D4670470446AFF3008028
:102C90002046FDF7A4FA0000004870474C0C0020C5
:102CA00001487047704700BF500C002090EA010FA8
:102CB00048BF81F0004100F13682421A3CBF801AC1
:102CC00089184FEAD0524FF07F4C1CEA410FA2EB1B
:102CD000D15318BF9CEA026F00F03B804FF0004CCC
:102CE0004CEA00204CEA012121FA03FC10EB0C0C09
:102CF0001ED202F1FF325FEA1C2040EBC25038BF07
:102D000070471CF07F0F4FEA400C18BFBCF17F4F9B
:102D100038BF7047C3F12003994008BF20F001007D
:102D2000BCF17F4F38BF7047A0F1C04000F0E4B95C
:102D30004FEA3C00000A40EBC25028BF1CF0FF0FD6
:102D40004FEA400CE6D018BFBCF17F4F38BF704748
:102D5000EAE79CEA026F05D010EA5C0F08BF00F0BA
:102D60000040704710B500F07AF900BF64FBBE3E2A
:102D70004FF47F0C1CEAD0121EBF1CEAD11392EA5A
:102D80000C0F93EA0C0F00F0858090EA010F48BF0A
:102D900042F4807240F4000C41F400002CF07F41BA
:102DA00020F07F4000B58142A2EB03020FF2081C25
:102DB000ACEB504EC0F100009EF800E04FEA4E0E22
:102DC00000FB0EFC38BF49004FEA2C1C02F5FA024A
:102DD0000CFB0EF34FEACE1E4FEA112C4FEAC12135
:102DE0000EEB635E42EB22420EFB0CFC4FEA1C53DF
:102DF00000FB03114FEA112C4FEA01310EFB0CFCD2
:102E00004FEADC4C00FB0C11C14228BF09184CEB07
:102E100003335DF804EB10EB410143EBC250B2F514
:102E20007C0F38BF704729D512F0F00F1CBF00F19E
:102E3000C04000F00040704700818283848586870F
:102E400088898B8C8D8E8F919293959697999A9C69
:102E50009D9FA0A2A3A5A7A8AAACAEB0B2B3B5B7D8
:102E6000B9BCBEC0C2C5C7C9CCCED1D4D7D9DCDFAE
:102E7000E2E6E9ECF0F3F7FAFE0000004FEA400C5E
:102E80000CF1807CBCF17E4F28BF7047B0F1C04090
:102E900000F032B990EA010F0CEAD11348BF42F4B6
:102EA0008072624538BF634507D213F47F0F16D096
:102EB00080EA010000F00040704710B500F0CFF844
:102EC000097EFC3E00F005B880EA010000F00040F9
:102ED000704780EA010000F0004000F00DB912F4E4
:102EE0007F0F04BF0248704780EA010000F004B978
:102EF0000000C07FC10DD1F19E0206DB4FEA002326
:102F000043F0004323FA02F07047004207D54FEA2E
:102F10004001B1F1FE4F02D24FF00000704710B5F2
:102F200000F09DF849922480002070476FEA20004D
:102F300070470000B0FA80F310FA03F2C3F19D036A
:102F40000AD0D90501EB1220530638BF704700F1B3
:102F5000010008BF20F00100704700004FF47F0C13
:102F60001CEAD0121EBF1CEAD11392EA0C0F93EA9E
:102F70000C0F00F0478090EA010F48BF42F48072C6
:102F80004FF0004C4CEA00204CEA012102EB030216
:102F9000A0FB0113A2F50002002918BF43F00103B2
:102FA0005B0028BF4FEA330342EB22425FEA132C57
:102FB0004CEBC2502EBFBCEB436FB2F57C0F704799
:102FC0004FEA036CBCF1004F08BF20F00100B2F5DE
:102FD0007C0F38BF70470BD582F0FF0212F5803F9F
:102FE000C8BF704700F1C040D8BF00F00040704734
:102FF00000F5000C5FEA4C0C48BF7047B0F1C040D0
:1030000000F07AB890EA010F0CEAD11348BF42F4FD
:103010008072624538BF634504D280EA010000F047
:103020000040704710B500F01AF800BF8900013E5B
:1030300000F007B800F009B85FEA410C5FEA1C6CC9
:1030400008D080EA010000F057B85FEA400C5FEA60
:103050001C6CF6D14FF00040A0F5800070470EF1D7
:10306000020E2EF0030E5EF8044B244204D44FEA05
:103070004102B2F17F4F11D84FEA4003B3F17F4FC5
:103080000CD80ED14FEAD07CB2F17F4F0CEB4C0C38
:103090000CF1020C08BF4CEBD17C04E04FF0080CA3
:1030A00001E04FEAD17C0CEB4C0324FA03F404F06A
:1030B0000704B4F1040C06D20EEB840CBDE81040FA
:1030C0004CF0010C6047DFE80CF0070802024FF0FB
:1030D0000040A0F5800010BD0846420018BFD2F1A4
:1030E000807288BF00F0004010BD10B5FFF7D8FD1A
:1030F0004FF00001016010BDFF2141EAD050C00532
:10310000704780F0004090EA010F7FF5D6AD81F066
:10311000004100F008B8000090EA010F48BF81F0BC
:1031200000413FF5CAAD421A04D882F00042A0EB3C
:10313000020011444FEAD0524FF07F4C1CEA410F7D
:10314000A2EBD15318BF9CEA026F4AD04FF0004C5B
:103150004CEA00204CEA012121FA03FCB0EB0C0CF4
:103160000FD412F0FE0F36D05FEA4C001DD50012CE
:1031700040EBC25038BF70471CF03F0F18BF70477C
:103180000BE0A2F101025FEA1C2040EBC25038BF05
:1031900070471CF07F0F18BF7047C3F120039940A0
:1031A00014BF401E20F00100704780084FEA122330
:1031B00008BF7047B0FA80FCA2EB0C02CCF1280CDF
:1031C00060FA0CF093EA122F04BF00EBC250704774
:1031D0004FEAC3707047130A5FEADC1008BF7047FC
:1031E000F6E79CEA026F04D010EA5C0F08BF0020EB
:1031F000704710B5FFF733FF40DFF63E81F0004027
:1032000070470000010002000100030001000200FD
:10321000010004000100020001000300010002009F
:10322000010005000100020001000300010002008E
:10323000010004000100020001000300010002007F
:10324000010006000100020001000300010002006D
:10325000010004000100020001000300010002005F
:10326000010005000100020001000300010002004E
:10327000010004000100020001000300010002003F
:10328000010007000100020001000300010002002C
:10329000010004000100020001000300010002001F
:1032A000010005000100020001000300010002000E
:1032B00001000400010002000100030001000200FF
:1032C00001000600010002000100030001000200ED
:1032D00001000400010002000100030001000200DF
:1032E00001000500010002000100030001000200CE
:1032F00001000400010002000100030001000200BF
:1033000001003031323334353637383941424344A5
:10331000454640305800303132333435363738394D
:103320006162636465664030780000004C330008D9
:1033300000000020540000006C010008A0330008C9
:10334000540000205C0E000088010008000000000E
:10335000000000000000000030010000000000003C
:10336000000000000000000000000000000000005D
:10337000000000000000000000000000000000004D
:10338000000000000000000000000000000000003D
:10339000000000000000000000000000000000002D
:04000005080001EFFF
:00000001FF
